S0180000636C617373726F6F6D5F6D61737465722E737265634E
S11300004CC0000069C0000067C0000065C000006B
S113001063C0000061C000005FC000005DC000005C
S11300205BC0000059C0000057C0000055C000006C
S113003053C00000BBC000004FC000004DC0000012
S11300404BC0000049C0000047C0000045C000008C
S113005043C0000041C000003FC000003DC000009C
S11300603BC0000039C0000037C0000035C00000AC
S113007033C0000031C000002FC000002DC00000BC
S11300802BC0000029C0000027C00000E4030F04B7
S11300907F049E043205A205120611241FBECFEF71
S11300A0D0E4DEBFCDBF11E0A0E0B1E0E8E6F4E1CA
S11300B000E00BBF02C007900D92A83FB107D9F72B
S11300C022E0A8EFB1E001C01D92AB31B207E1F725
S11300D00E9496090C94320A93CFCF92DF92EF924A
S11300E0FF921F93CF93DF931092F8018091160231
S11300F0882309F453C080E01BE0C0911402D0911E
S11301001502189FC00DD11D11244D815E816F8190
S1130110788589819A81AB81BC81481759076A0720
S11301207B07B0F08881E985FA85082E000C990BCD
S1130130099588838091F801E0911402F0911502E9
S1130140189FE00DF11D1124158216821782108666
S11301508091F801E0911402F0911502189FE00DCE
S1130160F11D1124C580D680E780F0844091ED0113
S11301705091EE016091EF017091F0014C0D5D1D05
S11301806E1D7F1D45835683678370878F5F8093C1
S1130190F80190911602891708F4AFCFDF91CF913F
S11301A01F91FF90EF90DF90CF9008951F920F92D0
S11301B00FB60F9211240BB60F922F933F934F93C8
S11301C05F936F937F938F939F93AF93BF93EF93BB
S11301D0FF938091170290911802A0911902B09197
S11301E01A020197A109B10980931702909318028A
S11301F0A0931902B0931A02892B8A2B8B2B89F4B2
S11302006CDF8091ED019091EE01A091EF01B0912E
S1130210F0018093170290931802A0931902B093EF
S11302201A02FF91EF91BF91AF919F918F917F91AE
S11302306F915F914F913F912F910F900BBE0F9053
S11302400FBE0F901F9018956093ED017093EE010F
S11302508093EF019093F00160931702709318025A
S11302608093190290931A0208958BE08093810081
S11302708DE790E0909389008093880082E08093DA
S11302806F0010928500109284008091ED0190918E
S1130290EE01A091EF01B091F001809317029093C9
S11302A01802A0931902B0931A028FB780688FBF07
S11302B00895672B09F09FC0009711F410980895D2
S11302C08130910511F4119808958230910511F44B
S11302D0129808958330910511F413980895843089
S11302E0910511F4149808958530910511F4159829
S11302F008958630910511F4169808958730910574
S113030011F4179808958A30910511F428980895E6
S11303108B30910511F4299808958C30910511F4CE
S11303202A9808958D30910511F42B9808958E30F4
S1130330910511F42C9808958F30910511F42D989E
S113034008958031910511F42E9808958131910515
S113035011F42F9808958431910511F4409808956B
S11303608531910511F4419808958631910511F470
S1130370429808958731910511F44398089588317E
S1130380910511F4449808958931910511F4459823
S113039008958A31910511F4469808958B31910599
S11303A011F4479808958E31910511F458980895E1
S11303B08F31910511F4599808958032910511F403
S11303C05A9808958132910511F45B980895823208
S11303D0910511F45C9808958332910511F45D98A8
S11303E008958432910511F45E980895859709F073
S11303F09FC05F980895009711F4109A0895813072
S1130400910511F4119A08958230910511F4129A0C
S113041008958330910511F4139A08958430910559
S113042011F4149A08958530910511F4159A0895DC
S11304308630910511F4169A08958730910511F4C8
S1130440179A08958A30910511F4289A08958B30EB
S1130450910511F4299A08958C30910511F42A9A82
S113046008958D30910511F42B9A08958E309105DD
S113047011F42C9A08958F30910511F42D9A089552
S11304808031910511F42E9A08958131910511F46A
S11304902F9A08958431910511F4409A0895853175
S11304A0910511F4419A08958631910511F4429A07
S11304B008958731910511F4439A0895883191057F
S11304C011F4449A08958931910511F4459A0895D7
S11304D08A31910511F4469A08958B31910511F4EE
S11304E0479A08958E31910511F4589A08958F31E1
S11304F0910511F4599A08958032910511F45A9A8C
S113050008958132910511F45B9A08958232910520
S113051011F45C9A08958332910511F45D9A08955B
S11305208432910511F45E9A0895859709F45F9ACF
S11305300895CF93C82F80FF06C061E070E080E08B
S113054090E0B7DE05C060E070E080E090E0B1DEEE
S1130550C1FF06C061E070E081E090E0AADE05C062
S113056060E070E081E090E0A4DEC2FF06C061E0DC
S113057070E082E090E09DDE05C060E070E082E023
S113058090E097DEC3FF06C061E070E083E090E096
S113059090DE05C060E070E083E090E08ADEC4FF96
S11305A006C061E070E084E090E083DE05C060E0B6
S11305B070E084E090E07DDEC5FF06C061E070E09D
S11305C085E090E076DE05C060E070E085E090E0D4
S11305D070DEC6FF06C061E070E086E090E069DE90
S11305E005C060E070E086E090E063DECC2334F484
S11305F061E070E087E090E05CDE05C060E070E000
S113060087E090E056DECF910895CF93C82F60E045
S113061070E080E190E04DDE8C2F8BDF61E070E0D4
S113062081E190E046DE89EF90E00197F1F700C0A8
S1130630000060E070E081E190E03BDE89EF90E053
S11306400197F1F700C00000CF91089581E0DDCF5C
S1130650089560E070E080E190E02BDE60E070E0FF
S113066081E190E026DE87E893E10197F1F700C08D
S1130670000080E3CADF81EE94E00197F1F700C047
S1130680000080E3C2DF89EF90E00197F1F700C03A
S1130690000080E3BADF83EC99E00197F1F700C032
S11306A0000088E3B2DF8CE0B0DF81E0AEDF86E0FB
S11306B0ACCF0895CF93C82F61E070E080E190E063
S11306C0F8DD8C2F36DF61E070E081E190E0F1DD50
S11306D089EF90E00197F1F700C0000060E070E05E
S11306E081E190E0E6DD89EF90E00197F1F700C049
S11306F00000CF910895CF93DF93EC018881882384
S113070029F02196D7DF89918111FCCFDF91CF9118
S113071008958FEE88B90000309B29C0319B29C011
S1130720329B29C0339B29C08FED88B90000309BD0
S113073026C0319B26C0329B26C0339B26C08FEB3C
S113074088B90000309B23C0319B23C0329B23C057
S1130750339B23C08FE788B90000309B20C0319BB6
S113076020C0329B20C0339B20C080E0089581E3E9
S1130770089584E3089587E308958AE2089582E35F
S1130780089585E3089588E3089580E3089583E355
S1130790089586E3089589E3089583E2089581E442
S11307A0089582E4089583E4089584E408950F93FA
S11307B01F93CF93DF93EC018730910508F081C438
S11307C0FC01EA5BFF4F02C644DF80E81EDF86EDD2
S11307D091E091DF87E08093EC011092100281E0B8
S11307E08093EB01109200021092FF011092FC0121
S11307F01092FB01E6E0F2E001900020E9F7319766
S1130800AF014650524060E070E086E092E0E7D5E8
S11308108FE493EC0197F1F700C0000064C4E4EAAC
S1130820F1E001900020E9F7CF01855B9140209130
S1130830FB013091FC0182179307F8F007DF80E891
S1130840E4DE8091FB019091FC018C559E4F53DFB7
S11308508091FB019091FC0101969093FC0180939F
S1130860FB0180ECD2DE86E092E045DF87EA91E688
S11308700197F1F700C000004EC4E8DE80E8C5DE51
S113088004EA11E0F80101900020E9F7CF01855B4B
S11308909148880F991F2091FB013091FC01821B24
S11308A0930B8C559E4F27DF8091FB019091FC01A7
S11308B001969093FC018093FB0180ECA6DE86E018
S11308C092E019DF87EA91E60197F1F700C0000092
S11308D0F80101900020E9F73197E45AF140EE0F56
S11308E0FF1F7F978091FB019091FC01E817F907A6
S11308F009F011C41092FC011092FB010CC4A6DE95
S113090080E883DE82EC91E0F6DE1092FC01109226
S1130910FB01E6E0F2E001900020E9F73197AF0136
S11309204650524060E070E086E092E058D587EA95
S113093091E60197F1F700C00000D5C3E4E6F1E0C9
S113094001900020E9F7CF01855791402091FB01E8
S11309503091FC018217930788F178DE80E855DE38
S11309608091FB019091FC018C599E4FC4DE8091D3
S1130970FB019091FC0101969093FC018093FB0193
S113098080EC43DE86E092E0B6DE89EC3EDE80E673
S113099091E0B1DE8DEC39DE4AE061E072E08091F5
S11309A0FF01909100022BD581E092E0A4DE87EA5A
S11309B091E60197F1F700C00000A6C347DE80E886
S11309C024DE04E611E0F80101900020E9F7CF01EC
S11309D085579148880F991F2091FB013091FC01A4
S11309E0821B930B8C599E4F86DE8091FB01909164
S11309F0FC0101969093FC018093FB0180EC05DEE1
S1130A0086E092E078DE89EC00DE80E691E073DE39
S1130A108DECFBDD4AE061E072E08091FF01909192
S1130A200002EDD481E092E066DE87EA91E6019768
S1130A30F1F700C00000F80101900020E9F73197B8
S1130A40E456F140EE0FFF1F7F978091FB019091D8
S1130A50FC01E817F90709F057C31092FC01109242
S1130A60FB0152C3E9E3F1E001900020E9F7CF0173
S1130A708A5491402091FB013091FC018217930725
S1130A80F8F0E4DD80E8C1DD8091FB019091FC0188
S1130A90875C9E4F30DE8091FB019091FC010196B2
S1130AA09093FC018093FB0180ECAFDD86E092E043
S1130AB022DE87EA91E60197F1F700C0000016C331
S1130AC0C5DD80E8A2DD09E311E0F8010190002012
S1130AD0E9F7CF018A549148880F991F2091FB01AF
S1130AE03091FC01821B930B875C9E4F04DE809146
S1130AF0FB019091FC0101969093FC018093FB0112
S1130B0080EC83DD86E092E0F6DD87EA91E60197EA
S1130B10F1F700C00000F80101900020E9F73197D7
S1130B20E953F140EE0FFF1F7F978091FB019091F5
S1130B30FC01E817F90709F0D9C21092FC011092E0
S1130B40FB01D4C2E8E1F1E001900020E9F7CF0114
S1130B50895291402091FB013091FC018217930747
S1130B60F8F074DD80E851DD8091FB019091FC0187
S1130B70885E9E4FC0DD8091FB019091FC0101963F
S1130B809093FC018093FB0180EC3FDD86E092E0D2
S1130B90B2DD87EA91E60197F1F700C00000BFC219
S1130BA055DD80E832DD08E111E0F8010190002014
S1130BB0E9F7CF0189529148880F991F2091FB01D1
S1130BC03091FC01821B930B885E9E4F94DD8091D3
S1130BD0FB019091FC0101969093FC018093FB0131
S1130BE080EC13DD86E092E086DD87EA91E60197EA
S1130BF0F1F700C00000F80101900020E9F73197F7
S1130C00E851F140EE0FFF1F7F978091FB01909117
S1130C10FC01E817F90709F082C21092FC01109256
S1130C20FB017DC2E0E0F1E001900020E9F7CF0193
S1130C30815191402091FB013091FC01821793076F
S1130C40F8F004DD80E8E1DC8091FB019091FC0187
S1130C5080509F4F50DD8091FB019091FC010196E3
S1130C609093FC018093FB0180ECCFDC86E092E062
S1130C7042DD87EA91E60197F1F700C000003DC22A
S1130C80E5DC80E8C2DC00E011E0F801019000201E
S1130C90E9F7CF0181519148880F991F2091FB01F9
S1130CA03091FC01821B930B80509F4F24DD809177
S1130CB0FB019091FC0101969093FC018093FB0150
S1130CC080ECA3DC86E092E016DD87EA91E60197EA
S1130CD0F1F700C00000F80101900020E9F7319716
S1130CE0E050F140EE0FFF1F7F978091FB01909140
S1130CF0FC01E817F90709F000C21092FC011092F8
S1130D00FB01FBC166EE71E086E092E06FD3892BB4
S1130D1009F0DAC19BDC81E878DC8EE891E0EBDC59
S1130D201092FC011092FB01E6E0F2E00190002039
S1130D30E9F73197AF014650524060E070E086E039
S1130D4092E04DD387EA91E60197F1F700C00000E5
S1130D50C3E0D0E0EBC100E010E0DBDC833209F05B
S1130D60B6C161EF71E086E092E040D3892BA9F42B
S1130D701092FC011092FB01E6E0F2E001900020E9
S1130D80E9F73197AF014650524060E070E086E0E9
S1130D9092E025D3C4E0D0E0C9C163EF71E086E0FE
S1130DA092E024D3892BA9F41092FC011092FB0148
S1130DB0E6E0F2E001900020E9F73197AF014650F8
S1130DC0524060E070E086E092E009D3C5E0D0E0F4
S1130DD0ADC165EF71E086E092E008D3892BA9F4F8
S1130DE01092FC011092FB01E6E0F2E00190002079
S1130DF0E9F73197AF014650524060E070E086E079
S1130E0092E0EDD2C6E0D0E091C11092FC011092C4
S1130E10FB01E6E0F2E001900020E9F73197AF0131
S1130E204650524060E070E086E092E0D8D27EC145
S1130E3000E010E06EDC833209F04CC161EF71E038
S1130E4086E092E0D3D2892BC1F481E08093EB0158
S1130E501092FC011092FB01E6E0F2E00190002008
S1130E60E9F73197AF014650524060E070E086E008
S1130E7092E0B5D2C3E0D0E059C163EF71E086E0FF
S1130E8092E0B4D2892BC1F482E08093EB011092FA
S1130E90FC011092FB01E6E0F2E001900020E9F78A
S1130EA03197AF014650524060E070E086E092E036
S1130EB096D2C3E0D0E03AC165EF71E086E092E0FB
S1130EC095D2892BC1F483E08093EB011092FC014D
S1130ED01092FB01E6E0F2E001900020E9F731977F
S1130EE0AF014650524060E070E086E092E077D275
S1130EF0C3E0D0E01BC11092FC011092FB01E6E0BC
S1130F00F2E001900020E9F73197AF0146505240DA
S1130F1060E070E086E092E062D208C100E010E098
S1130F20F8DB833209F0D9C0E6E0F2E0019000205A
S1130F30E9F73197E650F240349720F480910602A5
S1130F40811113C01092FC011092FB01E6E0F2E063
S1130F5001900020E9F73197AF014650524060E01C
S1130F6070E086E092E03BD2E1C010920F02109252
S1130F70FA011092F901A6E0B2E0FD01019000200F
S1130F80E9F73197E650F2408091F9019091FA0126
S1130F908E179F0738F5FC01EA5FFD4F208121334E
S1130FA031F420910F022F5F20930F0215C02233DA
S1130FB031F420910F022E5F20930F020DC02333D2
S1130FC031F420910F022C5F20930F0205C02433CB
S1130FD019F410920F0206C001969093FA018093BF
S1130FE0F901CBCF80910F028093EC011092FC01A8
S1130FF01092FB01E6E0F2E001900020E9F731975E
S1131000AF014650524060E070E086E092E0E7D1E4
S1131010C3E0D0E08BC000E010E07BDB833209F05A
S11310205FC061EF71E086E092E0E0D1892BC1F40A
S113103081E0809310021092FC011092FB01E6E023
S1131040F2E001900020E9F73197AF014650524099
S113105060E070E086E092E0C2D1C3E0D0E066C018
S113106063EF71E086E092E0C1D1892BB9F410926C
S113107010021092FC011092FB01E6E0F2E00190F4
S11310800020E9F73197AF014650524060E070E02C
S113109086E092E0A4D1C3E0D0E048C01092FC0105
S11310A01092FB01E6E0F2E001900020E9F73197AD
S11310B0AF014650524060E070E086E092E08FD18C
S11310C035C0C1E0D0E032C0C2E0D0E02FC0C02FB4
S11310D0D12F2CC0C02FD12F29C0C02FD12F26C073
S11310E0C02FD12F23C0C1E0D0E020C012DB8A3250
S11310F009F49ECE0C2F1D2F9DCE0BDB8A3209F4F2
S11311008ACF0C2F1D2F89CF04DB8A3209F423CE1A
S11311100C2F1D2F22CEFDDA833241F4F3CDF9DA00
S11311208A3209F4FBCE0C2F1D2FFACECE01DF91AB
S1131130CF911F910F910895CF93DF93EC018130EC
S1131140910541F082309105C9F1892BB9F1C0E0D4
S1131150D0E036C0DEDA809311029FEC980F99300C
S1131160A0F4E6E0F2E001900020E9F73197E650C0
S1131170F240EA30F10520F5F093FE01E093FD0121
S1131180EA5FFD4F808311821BC08033C9F48091D4
S113119006028823A9F0E6E0F2E001900020E9F7D6
S11311A0CF01885092409093FE018093FD01FC0191
S11311B0EA5FFD4F1082C2E0D0E002C0C1E0D0E09F
S11311C0CE01DF91CF910895813081F0E1ECF0E020
S11311D0808188618083E2ECF0E080818660808396
S11311E083E38093C4001092C5000895E9ECF0E015
S11311F0808188618083EAECF0E08081866080836E
S113120083E38093CC001092CD000895813029F4BB
S11312108091C800882374F008958091C0008823C9
S11312208CF4A6ECB0E0E0ECF0E08C9180818823B3
S1131230E4F30895AEECB0E0E8ECF0E08C9180814A
S11312408823E4F30895613041F0E0ECF0E090810C
S113125095FFFDCF8093C6000895E8ECF0E09081FF
S113126095FFFDCF8093CE000895813041F0E0ECEE
S1131270F0E080818823ECF78091C6000895E8ECC3
S1131280F0E080818823ECF78091CE0008958130CE
S1131290910551F08230910539F1009799F580E07C
S11312A093DF80E0B3DF3FC08091C00085FF35C08D
S11312B08091EB01805F8093130260E0C4DF809132
S11312C0EC01805E8093130260E0BDDF8091100228
S11312D0805D8093130260E0B6DF83EF91E00197B5
S11312E0F1F700C0000019C08091C0008823DCF42D
S11312F080E0BBDF8093120290E090930002809321
S1131300FF0111C08130910541F08230910541F017
S1131310892B31F080E090E0089582E090E0089518
S113132081E090E0089581E090E00895CF93DF9309
S1131330CDB7DEB7A1970FB6F894DEBF0FBECDBF11
S11313408FEF81B984B980EF87B983E08093160267
S1131350CE0101969093150280931402198288E5B8
S113136092E0A0E0B0E08A839B83AC83BD838E834C
S11313709F83A887B98787ED93E09B878A871C861C
S113138084EF91E0A0E0B0E08D879E87AF87B88BB3
S1131390898B9A8BAB8BBC8B2CE938E03E8B2D8BE5
S11313A01F8A888F998FAA8FBB8F8C8F9D8FAE8F4A
S11313B0BF8F87E499E099A388A364E670E080E096
S11313C090E00E9424010E943501FFCFEE0FFF1F21
S11313D00024001C0BBE0790F691E02D0994DC015B
S11313E001C06D9341505040E0F70895FB01DC01CA
S11313F08D91019080190110D9F3990B0895BB27A1
S11314004A3031F4992322F4BDE2909581959F4F9F
S113141001C0BB27FB015527AA27880F991FAA1FC4
S1131420A41710F0A41B83955051B9F7A05DAA33FB
S113143008F0A95DA193009779F7B111B1931192C6
S1131440CB0100C0DC01FC01672F71917723E1F728
S1131450329704C07C916D9370836291AE17BF077D
S10B1460C8F30895F894FFCFCE
S1131468202020312E5475726E206F6E20322E5437
S113147875726E206F666600202020312E46726FCA
S11314886E7420322E4D6964646C6520332E42617B
S1131498636B20342E4F464600202020312E41769F
S11314A861696C61626C6520322E5265636F6D6D83
S11314B8656E646564204C656320332E4C65630057
S11314C84E6F2E00202020312E526F6F6D205365F1
S11314D87420322E4C696768742053657420332E47
S11314E850726F6A6563746F7220536574002020AC
S11314F8204C6F67696E20537563636573736675F3
S11315086C6C7900202020506C6561736520456EF1
S1131518746572205468652050617373776F7264C0
S11315283A00202020204163636573732052656666
S113153875736564200020202020202057656C6383
S11315486F6D65210000313233340001070100005A
S10B15580031003200330000F1
S9030000FC
