S01A0000636C617373726F6F6D5F6D61747269785F322E73726563B2
S113000045C0000060C000005EC000005CC000008D
S11300105AC0000058C0000056C0000054C0000080
S113002052C0000050C000004EC000004CC0000090
S11300304AC00000E4C0000046C0000044C0000004
S113004042C0000040C000003EC000003CC00000B0
S11300503AC0000038C0000036C0000034C00000C0
S113006032C0000030C000002EC000002CC00000D0
S11300702AC0000028C0000026C0000024C00000E0
S113008022C0000020C000001EC0000011241FBEBA
S1130090CFEFD0E4DEBFCDBF11E0A0E0B1E0E2E0FD
S11300A0F6E000E00BBF02C007900D92A830B10744
S11300B0D9F721E0A8E0B1E001C01D92A131B20757
S11300C0E1F74AD29CC29CCF8130910539F5209149
S11300D0010130910301231729F0209303012BB16F
S11300E023702BB920910301211104C02BB123707B
S11300F02BB9089520FF03C02BB12C602BB920919C
S1130100030121FF03C02BB120632BB9209103010C
S113011022FF0BC02BB1206C2BB90895029718F065
S113012080E090E0089581E090E00895CF92DF921E
S1130130EF92FF921F93CF93DF9310920801809167
S11301400C01882309F453C080E01BE0C0910A012C
S1130150D0910B01189FC00DD11D11244D815E81DA
S11301606F81788589819A81AB81BC814817590751
S11301706A077B07B0F08881E985FA85082E000CB0
S1130180990B0995888380910801E0910A01F09107
S11301900B01189FE00DF11D1124158216821782A0
S11301A0108680910801E0910A01F0910B01189FDB
S11301B0E00DF11D1124C580D680E780F0844091C4
S11301C004015091050160910601709107014C0DE5
S11301D05D1D6E1D7F1D45835683678370878F5F0A
S11301E08093080190910C01891708F4AFCFDF9137
S11301F0CF911F91FF90EF90DF90CF9008951F92C1
S11302000F920FB60F9211240BB60F922F933F93B8
S11302104F935F936F937F938F939F93AF93BF930A
S1130220EF93FF9380910D0190910E01A0910F0126
S1130230B09110010197A109B10980930D01909328
S11302400E01A0930F01B0931001892B8A2B8B2BE5
S113025089F46CDF8091040190910501A09106015D
S1130260B091070180930D0190930E01A0930F01AB
S1130270B0931001FF91EF91BF91AF919F918F9136
S11302807F916F915F914F913F912F910F900BBE92
S11302900F900FBE0F901F901895609304017093F8
S11302A00501809306019093070160930D017093FB
S11302B00E0180930F019093100108958BE08093B9
S11302C081008DE790E0909389008093880082E01C
S11302D080936F0010928500109284008091040135
S11302E090910501A0910601B091070180930D0141
S11302F090930E01A0930F01B09310018FB7806803
S11303008FBF0895813081F0E1ECF0E08081886155
S11303108083E2ECF0E080818660808383E38093D5
S1130320C4001092C5000895E9ECF0E08081886172
S11303308083EAECF0E080818660808383E38093AD
S1130340CC001092CD000895813029F48091C8002A
S1130350882374F008958091C00088238CF4A6EC5F
S1130360B0E0E0ECF0E08C9180818823E4F3089520
S1130370AEECB0E0E8ECF0E08C9180818823E4F30B
S11303800895813041F0E0ECF0E080818823ECF7BF
S11303908091C6000895E8ECF0E080818823ECF7B2
S11303A08091CE000895009721F08130910531F0BD
S11303B01BC080E0A7DF80E0C7DF1EC08091C000C3
S11303C08823D4F480E0DDDF80930901982F907FA7
S11303D0903121F48F70809300010EC0903261F44B
S11303E08F708093010108C0029718F080E090E0BC
S11303F0089581E090E0089581E090E008958130CF
S113040099F580E185B98FEE82B98FE99FE0019774
S1130410F1F700C0000088E285B987EF82B9EFE9FF
S1130420FFE03197F1F700C0000084E485B98BEF59
S113043082B98FE99FE00197F1F700C0000082E0E4
S113044085B98DEF82B9EFE9FFE03197F1F700C08C
S1130450000081E085B98EEF82B98FE99FE00197B2
S1130460F1F700C000000895823039F588E185B9BC
S11304709DEF92B9EFE9FFE03197F1F700C000007A
S113048094E295B92BEF22B9EFE9FFE03197F1F748
S113049000C0000095B997EF92B9EFE9FFE03197FA
S11304A0F1F700C0000085B98FEE82B98FE99FE0B3
S11304B00197F1F700C000000895833081F584E4CA
S11304C085B99EEF92B9EFE9FFE03197F1F700C0EB
S11304D0000098E295B92DEF22B9EFE9FFE03197DA
S11304E0F1F700C0000020E125B92BEF22B9EFE9B4
S11304F0FFE03197F1F700C0000095B997EF92B98A
S1130500EFE9FFE03197F1F700C0000085B98FEE05
S113051082B98FE99FE00197F1F700C000000895C8
S1130520CF93DF93EC018130910559F48091000160
S113053090910201891380930201809102015FDF8F
S113054007C0029718F0C0E0D0E002C0C1E0D0E0DC
S1130550CE01DF91CF910895CF93DF93CDB7DEB76E
S1130560A1970FB6F894DEBF0FBECDBF8EEF8AB948
S11305708FEF84B981B987B983E080930C01CE01F0
S1130580019690930B0180930A01198282E390E013
S1130590A0E0B0E08A839B83AC83BD838E839F837A
S11305A0A887B98783ED91E09B878A871C868FE0B3
S11305B090E0A0E0B0E08D879E87AF87B88B898BF1
S11305C09A8BAB8BBC8B80E992E09E8B8D8B1F8AC0
S11305D08EE190E0A0E0B0E0888F998FAA8FBB8F66
S11305E08C8F9D8FAE8FBF8F84E690E099A388A3F4
S11305F065E070E080E090E050DE60DEFFCFF894CC
S1050600FFCF26
S10B06020107010701000000DB
S9030000FC
