:1000000045C0000060C000005EC000005CC0000091
:100010005AC0000058C0000056C0000054C0000084
:1000200052C0000050C000004EC000004CC0000094
:100030004AC0000063C1000046C0000044C0000088
:1000400042C0000040C000003EC000003CC00000B4
:100050003AC0000038C0000036C0000034C00000C4
:1000600032C0000030C000002EC000002CC00000D4
:100070002AC0000028C0000026C0000024C00000E4
:1000800022C0000020C000001EC0000011241FBEBE
:10009000CFEFD0E4DEBFCDBF11E0A0E0B1E0ECE0F7
:1000A000FAE000E00BBF02C007900D92AC30B10740
:1000B000D9F721E0ACE0B1E001C01D92A632B20751
:1000C000E1F725D3A1C49CCF8230910599F083300C
:1000D0009105B9F18130910509F059C080911E0157
:1000E000811103C088B188B961C0813009F05EC058
:1000F000449A5CC0109218011092170180E090E0C1
:10010000FC01E050FF4F808188B98FE697E10197AD
:10011000F1F700C00000809117019091180101963D
:100120009093180180931701883091054CF38091CA
:10013000190190911A01019690931A018093190167
:1001400049C087E090E09093180180931701FC016B
:10015000E050FF4F808188B98FE697E10197F1F772
:1001600000C00000809117019091180101979093B1
:10017000180180931701992354F7809119019091E8
:100180001A01019690931A018093190131C08130B0
:10019000910561F01CF4892BC9F105C082309105ED
:1001A000C9F0039729F180E090E0089590911D0136
:1001B00080911E01981769F1811105C090931E016D
:1001C00082E090E00895813039F590931E0183E03C
:1001D00090E008958091190190911A0181159A403B
:1001E000F1F410921A011092190181E090E0089543
:1001F0008091190190911A0181159A4099F41092F9
:100200001A011092190181E090E0089581E090E0D8
:10021000089581E090E0089581E090E0089582E003
:1002200090E0089583E090E00895CF92DF92EF92FE
:10023000FF921F93CF93DF9310920C0180912101C5
:10024000882309F453C080E01BE0C0911F01D091C6
:100250002001189FC00DD11D11244D815E816F8139
:10026000788589819A81AB81BC81481759076A07D3
:100270007B07B0F08881E985FA85082E000C990B80
:100280000995888380910C01E0911F01F091200174
:10029000189FE00DF11D1124158216821782108619
:1002A00080910C01E0911F01F0912001189FE00D59
:1002B000F11D1124C580D680E780F08440910801AB
:1002C0005091090160910A0170910B014C0D5D1D67
:1002D0006E1D7F1D45835683678370878F5F809374
:1002E0000C0190912101891708F4AFCFDF91CF91D4
:1002F0001F91FF90EF90DF90CF9008951F920F9283
:100300000FB60F9211240BB60F922F933F934F937A
:100310005F936F937F938F939F93AF93BF93EF936D
:10032000FF938091220190912301A0912401B0912B
:1003300025010197A109B10980932201909323011E
:10034000A0932401B0932501892B8A2B8B2B89F450
:100350006CDF8091080190910901A0910A01B09190
:100360000B018093220190932301A0932401B09369
:100370002501FF91EF91BF91AF919F918F917F9157
:100380006F915F914F913F912F910F900BBE0F9006
:100390000FBE0F901F90189560930801709309018C
:1003A00080930A0190930B016093220170932301C3
:1003B000809324019093250108958BE08093810020
:1003C0008DE790E0909389008093880082E080938D
:1003D0006F00109285001092840080910801909126
:1003E0000901A0910A01B0910B0180932201909321
:1003F0002301A0932401B09325018FB780688FBF9C
:100400000895813081F0E1ECF0E0808188618083A3
:10041000E2ECF0E080818660808383E38093C40017
:100420001092C5000895E9ECF0E080818861808336
:10043000EAECF0E080818660808383E38093CC00E7
:100440001092CD000895813029F48091C80088234E
:1004500074F008958091C00088238CF4A6ECB0E07D
:10046000E0ECF0E08C9180818823E4F30895AEEC19
:10047000B0E0E8ECF0E08C9180818823E4F308950B
:10048000613041F0E0ECF0E0908195FFFDCF80938A
:10049000C6000895E8ECF0E0908195FFFDCF8093D1
:1004A000CE000895813041F0E0ECF0E080818823B7
:1004B000ECF78091C6000895E8ECF0E08081882395
:1004C000ECF78091CE0008958130910581F0823063
:1004D000910509F43BC0009709F047C080E091DF27
:1004E00080E0B1DF81E08DDF81E0ADDF4FC0809142
:1004F000C00088230CF044C080E0D4DF80931C014E
:10050000982F907F903169F49091C80095FF38C082
:1005100061E0B6DF8FEC97E00197F1F700C00000D3
:100520002FC0903269F49091C80095FF29C061E016
:10053000A7DF8FEC97E00197F1F700C0000020C023
:100540009033F1F48F7080931D011AC08091C00028
:1005500085FF1CC060E080911B0192DF8FEC97E06B
:100560000197F1F700C0000011C08130910541F002
:100570008230910541F0892B31F080E090E00895C0
:1005800082E090E0089581E090E0089581E090E0BD
:10059000089580E480937C0087E880937A00089532
:1005A000ECE7F0E090818770982B9083EAE7F0E029
:1005B000808180648083808184FFFDCFEAE7F0E062
:1005C0008081806180838091780090917900089586
:1005D000009721F08130910519F023C0DADF29C09E
:1005E00080E0DEDFBC0180E090E058D12DEC3CECF7
:1005F0004CE453E4EBD060931301709314018093A7
:1006000015019093160126E636E646EE5FE3D4D157
:10061000181624F481E080931B010BC010921B017B
:1006200008C0029718F080E090E0089581E090E023
:10063000089581E090E00895209A28988FE39CE93E
:100640000197F1F700C00000289A089520981899A2
:10065000FECF189BFECF1899FECF089588E090E05A
:10066000189BFECF20E52A95F1F7189B07C0209133
:100670001201220F21602093120105C02091120166
:10068000220F209312011899FECF019749F780910C
:1006900012010895009721F08130910519F02CC0C6
:1006A0005C9832C0C9DFD2DFD9DF80931101D6DF79
:1006B00080931001D3DF80930F01D0DF80930E0170
:1006C000CDDF80930D0140910F0190911101209198
:1006D000100130E0290F311D240F311D90910E01C2
:1006E000290F311D90E02817390771F44B3110F0B4
:1006F0005C980AC05C9A08C0029718F080E090E00D
:10070000089581E090E0089581E090E00895CF930E
:10071000DF93CDB7DEB7AC970FB6F894DEBF0FBE50
:10072000CDBF8FEF87B911B88AEF8AB984E0809383
:100730002101CE0101969093200180931F0119821F
:1007400082E390E0A0E0B0E08A839B83AC83BD832A
:100750008E839F83A887B98724E632E03B872A8768
:100760001C864AE050E060E070E04D875E876F874E
:10077000788B498B5A8B6B8B7C8B24E630E03E8BDD
:100780002D8B1F8A48EC50E060E070E0488F598F55
:100790006A8F7B8F4C8F5D8F6E8F7F8F2AE433E063
:1007A00039A328A31AA28BA39CA3ADA3BEA38FA396
:1007B00098A7A9A7BAA788EE92E09CA78BA765E0A7
:1007C00070E080E090E0E8DDF8DDFFCF0CD0BAC04B
:1007D000B2D040F0A9D030F021F45F3F19F09BC0B7
:1007E0005111E4C09EC0BFD098F39923C9F355239B
:1007F000B1F3951B550BBB27AA2762177307840714
:1008000038F09F5F5F4F220F331F441FAA1FA9F3C9
:1008100033D00E2E3AF0E0E830D091505040E695BB
:10082000001CCAF729D0FE2F27D0660F771F881F1C
:10083000BB1F261737074807AB07B0E809F0BB0B0B
:10084000802DBF01FF2793585F4F2AF09E3F51052F
:1008500068F061C0ABC05F3FECF3983EDCF3869577
:1008600077956795B795F7959F5FC9F7880F911DA5
:100870009695879597F90895E1E0660F771F881F91
:10088000BB1F621773078407BA0720F0621B730B44
:10089000840BBA0BEE1F88F7E0950895E89409C021
:1008A00097FB3EF490958095709561957F4F8F4FA3
:1008B0009F4F9923A9F0F92F96E9BB279395F695B9
:1008C000879577956795B795F111F8CFFAF4BB0F37
:1008D00011F460FF1BC06F5F7F4F8F4F9F4F16C09B
:1008E000882311F096E911C0772321F09EE8872F25
:1008F000762F05C0662371F096E8862F70E060E0E1
:100900002AF09A95660F771F881FDAF7880F969559
:10091000879597F9089597F99F6780E870E060E000
:1009200008959FEF80EC089500240A941616170688
:1009300018060906089500240A94121613061406D0
:1009400005060895092E0394000C11F4882352F033
:10095000BB0F40F4BF2B11F460FF04C06F5F7F4FEB
:100960008F4F9F4F089557FD9058440F551F59F0D2
:100970005F3F71F04795880F97FB991F61F09F3F8C
:1009800079F087950895121613061406551FF2CFB5
:100990004695F1DF08C0161617061806991FF1CF05
:1009A00086957105610508940895E894BB2766272C
:1009B0007727CB0197F9089503D008F48FEF0895B6
:1009C000990F0008550FAA0BE0E8FEEF1616170660
:1009D000E807F907C0F012161306E407F50798F0C8
:1009E000621B730B840B950B39F40A2661F0232BE1
:1009F000242B252B21F408950A2609F4A140A6955D
:0C0A00008FEF811D811D0895F894FFCF39
:0C0A0C0001030206040C080901000000B0
:00000001FF
